:04000000803115280E
:100008007E1480312100901E0A280B281328200016
:10001800901E0F28102813288131B02180317E10BE
:10002800090080311728F001F101F201F301F40110
:10003800F501F6012000A001A101A201A301A4017C
:10004800A501A601A7017E10200080312B2881314F
:10005800C4218031F10121302000A8007630890BBD
:100068003328A80B3328000020008C1E3C283D288C
:100078003F2822000C16F601031022008D1F0314DE
:10008800031847284A2822008D174C2822008D1370
:1000980011302000A8003A30890B5028A80B5028AE
:1000A8000000031022008E1F031403185C285F2829
:1000B80022008E17612822008E1311302000A8001C
:1000C8003A30890B6528A80B65280000013020000C
:1000D800A8002808F6070A307602031C7428752839
:1000E800402822008D138E138B170B1782310022A4
:1000F80080318131E52180312000A8003330280289
:10010800031C872888283829031022008D1F031410
:1001180003188F28922822008D17942822008D1307
:100128008131FC21803101302000A0070030A13D41
:100138000E090739A8002808F2000D09A8000530A3
:10014800A836890BA42828080339A9002908A7007C
:100158003829F101F10A22000C157D2800308E1A89
:100168000130F6008E1EB928BA28C0280230A8002F
:100178002808F10022000C1120000D1AC428C528F7
:10018800D2288D1AC828C928D2287108A80028089A
:10019800F3000430A8002808F100A6018C1AD5281D
:1001A800D6287D28A001A1010330A8002808F10065
:1001B80022000C157D288C1AE228E3287D280330BC
:1001C800A8002808F100A001A10122000C157D2833
:1001D8000D0E890C890C0139A8000230A835FF3EA4
:1001E800031DF2282835A9002908F60072087607A9
:1001F800A800A901A90DA835A90D7C3028078400FD
:100208008130293D8500003FAA00013FAB0021084D
:100218002B02031D112920082A0203181429152965
:10022800182922000C1217298C1E1B291C297D282D
:1002380000302102033003192002031C2429252938
:100248005129F1017D2822008E1720000D1E2D292D
:100258002E297D2822008E137303031D3429352986
:100268005129F101F10A7D287108A800A90129087E
:10027800003A0319402925292808003A0319AD280E
:10028800013A0319B228033A0319DF28013A03197E
:10029800EC28073A0319272925297D2880311528B4
:1002A80022008C018D018E01233021008C007030DA
:1002B8008D003F308E0023008E018D0103308C00AD
:1002C800103024008D008C018E0125008C018D01D9
:1002D8008E01373026008C00F0308D00FF308E0004
:1002E8003F3027008C00F0308D00FF308E00080072
:1002F8000034003458340234483403343834043475
:100308002834053418340634083407346034093482
:10031800003400340A3400340E340034123400340B
:10032800163400341A3400341E34003428340034AF
:100338004630200098002630960095019012210042
:1003480090160330F8000230F9008131ED21813137
:100358008030200097000800200090122C082D04FF
:100368000319B729B829BD292D088A002C080A00C5
:1003780081318131F3218131263020009600080037
:100388008131DD2181318131542181318131D42183
:1003980081318131F821813181319C2181310800FD
:1003A8006230320099009B019D0103309F009E013D
:1003B8000800320091019201930194019501960180
:1003C80008008B137008F8007808F9008B17790873
:1003D800080079082000AD007808AC00080001305A
:1003E800F7007708F0070800103021009700080090
:1003F8008B13F0018B1708002000971708000800DE
:020000040001F9
:08000000FF3FFF3FFF3FFF3F00
:08000E00EC3FF73DFF3FFF3F0F
:00000001FF
